19:59:32.595590 00:50:56:5c:70:32 > ff:ff:ff:ff:ff:ff, ethertype IPv4 (0x0800),
length 102: IP (tos 0x0, ttl 64, id 1566, offset 0, flags [none], length: 88)
192.168.2.2.513 > 192.168.2.255.513: [udp sum ok] UDP, length: 60
0x0000: 4500 0058 061e 0000 4011 ee25 c0a8 0202 E..X....@..%....
0x0010: c0a8 02ff 0201 0201 0044 aa94 0101 0000 .........D......
0x0020: 3d4c 0b62 0000 0000 6f72 616e 6765 0000 =L.b....orange..
0x0030: 0000 0000 0000 0000 0000 0000 0000 0000 ................
0x0040: 0000 0000 0000 0000 0000 0045 0000 0024 ...........E...$
0x0050: 0000 000e 3d4c 0ac5 ....=L..